:020000040800F2
:1000000080C801209D010008F166000879350008CC
:10001000635A0008AB140008E5C0000800000000A7
:1000200000000000000000000000000055800008F3
:100030006926000800000000776A00084582000871
:10004000B7010008B7010008B7010008B7010008B0
:10005000B7010008B701000891260008B7010008A1
:10006000B7010008B7010008B7010008B701000890
:10007000B7010008B7010008B7010008B701000880
:10008000B9220008B7010008B7010008B70100084D
:10009000B1140008B7010008B7010008B701000853
:1000A000B7010008B7010008B7010008B701000850
:1000B0003D830008B7010008B7010008B701000838
:1000C000B7010008B7010008B7010008B701000830
:1000D000B7010008FD91000899940008E195000817
:1000E000A3260008B7010008B7010008B7010008FF
:1000F000B7010008B7010008B7010008B701000800
:10010000B7010008B7010008B7010008B7010008EF
:10011000618C0008CD8D000855830008A18300087C
:10012000B7010008B701000801230008B701000863
:10013000B7010008B7010008B7010008B7010008BF
:10014000E1140008B7010008B7010008C167000802
:10015000B7010008B70100085123000809980008FA
:10016000B7010008B7010008B7010008B70100088F
:10017000B7010008D1670008B7010008B7010008FF
:10018000B7010008B7010008DFF80CD000F044FC0C
:10019000004800474DF2000880C80120064880470B
:1001A00006480047FEE7FEE7FEE7FEE7FEE7FEE75C
:1001B000FEE7FEE7FEE7FEE7D582000889010008BA
:1001C0002DE9F0410024061B254671F1000605DAF1
:1001D00001240027D0EB070067EB0101161E73F125
:1001E000000605DA0027D2EB0702012567EB0303BF
:1001F00000F0B2FA86460E4617469C46AC4204D042
:100200000025D0EB050E65EB010624B10020D2EBF2
:10021000000760EB030C704631463A466346BDE882
:10022000F08140EA01039B0703D009E008C9121FCF
:1002300008C0042AFAD203E011F8013B00F8013BA0
:10024000521EF9D27047D2B201E000F8012B491ECC
:10025000FBD270470022F6E710B513460A46044663
:100260001946FFF7F0FF204610BD421C10F8011B95
:100270000029FBD1801A704730B5044600200346A0
:1002800000E05B1C934203D2E05CCD5C401BF8D0E5
:1002900030BD30B505460020034600E05B1C9342AC
:1002A00005D2EC5CC85C201A01D1002CF6D130BD1F
:1002B0002DE9FE4F804681EA0300C00F0C460090F6
:1002C00021F0004123F00045B8EB0200A94105D21E
:1002D0004046214690461C460B46024623F000400D
:1002E000104347D0270DC7F30A00C3F30A51029009
:1002F000401A019040286BDAC3F3130040F4801BCE
:100300000098924620B10023D2EB030A63EB0B0B5B
:1003100001985946C0F14002504600F04EFA064698
:100320000D4650465946019A00F066FA10EB080057
:100330006141002487EA115284EAE7731A4340D0EE
:10034000009A62B3019A012A4FEA075215DC001B9A
:1003500061EB02014FF0004202EA0752CDE9004290
:10036000001C41F5801132462B4600F09DFA03B087
:10037000BDE8F08F40462146F9E7001B61EB020122
:10038000001C41F5801300185B412018A2F50017EE
:1003900047EB030140EAD570B6196D4111E06D08D5
:1003A0004FEA360645EAC0754FEA0752001B61EB7B
:1003B0000201001C41F5801149084FEA3000001984
:1003C000514132462B4603B0BDE8F04F00F05DBA14
:1003D0000098012240000023D0EB020263EBE0739F
:1003E000009821464FEAE074B8EB000061EB04018D
:1003F000E9E783F000435BE781F0004158E72DE92E
:10040000FE4F81EA030404F0004421F0004100940F
:100410004FF0000B23F0004350EA01045ED052EA93
:1004200003045BD0C3F30A54C1F30A552C44A4F26D
:10043000F3340194A0FB0254C1F3130141F4801181
:10044000C3F3130343F4801301FB024400FB034E88
:10045000840A970A44EA815447EA8357A4FB076851
:1004600002958D0A05FB07854FEA932C04FB0C547B
:100470002705029D4FEA065847EA1637B5EB0805EF
:100480006EEB070C870E920E47EA811742EA831241
:10049000A7FB0201B6EB0B0164EB00042B0D43EA52
:1004A0000C335E1844EB1C50DA465146E7FB020160
:1004B000C5F313044FEA0B3343EA14534FEA0432F3
:1004C000019C43EA0603A4F10C040294009CCDE9CC
:1004D00000B400F0E9F903B0BDE8F08F0020014658
:1004E000F9E72DE9F04D81EA030404F0004B21F017
:1004F000004514464FF0000A23F0004150EA05027F
:1005000020D054EA01021DD0C5F30A570246C5F3B4
:100510001303C1F31300C1F30A5640F4801543F4EA
:100520008013A7EB0608101BD64608F2FD3873EBC4
:10053000050002D308F1010801E092185B41B8F10F
:10054000000F03DA00200146BDE8F08D00204FF4D3
:100550008011064684460EE0171B73EB050705D392
:10056000121B63EB050306434CEA010C49084FEAF2
:10057000300092185B4150EA0107EDD152EA0300C6
:1005800012D082EA040083EA0501084305D0101B5B
:10059000AB4106D20122002306E000224FF00043C7
:1005A00002E06FF0010253101AEB06004CEB085109
:1005B00010EB0A0041EB0B01BDE8F04D00F065B90E
:1005C0000EB5C10F80EAE0700844CA07002140F26E
:1005D00033438DE80E000A460B4600F065F903B080
:1005E00000BD0EB540F2334102910021CDE900116A
:1005F0000A460B4600F058F903B000BD70B5C1F3D0
:100600000A5201F000450024C1F3130140F2FF3308
:1006100041F480119A4201DA002070BD40F2334368
:100620009A42A2F2334203DC524200F0D5F800E0D5
:1006300090402C43F1D0404270BDC1F30A5210B536
:10064000C1F3130140F2FF3341F480119A4201DA01
:10065000002010BD40F233439A42A2F2334203DC41
:10066000524200F0B9F810BD904010BD00F00042B9
:1006700030F000400AD0C10D01F56071C0F31600E2
:1006800042EA0151C2084007114370470020014669
:100690007047000030B5041E71F1000404DB4FF018
:1006A0000044404264EB0101141E73F1000405DBB9
:1006B0001C464FF00043524263EB04038B4208BFD9
:1006C000824230BD30B5041E71F1000404DB4FF0EE
:1006D0000044404264EB0101141E73F1000405DB89
:1006E0001C464FF00043524263EB0403994208BF9B
:1006F000904230BD01F0004330B421F0004150EA97
:10070000010206D00A0DA2F56072C1F31301002A9E
:1007100002DC30BC00207047440F44EAC104C10031
:10072000E01830BC00EBC25000F078B830B50B4692
:10073000014600202022012409E021FA02F59D4211
:1007400005D303FA02F5491B04FA02F52844151EE5
:10075000A2F10102F1DC30BD2DE9F05F0546002079
:1007600092469B4688460646814640241BE0284622
:1007700041464746224600F02FF853465A46C01AD3
:10078000914110D311461846224600F016F82D1A52
:1007900067EB01084F4622460120002100F00DF8CA
:1007A00017EB00094E41201EA4F10104DFDC48468E
:1007B00031462A464346BDE8F09F202A04DB203A12
:1007C00000FA02F1002070479140C2F1200320FAA4
:1007D00003F3194390407047202A04DB203A21FAA2
:1007E00002F00021704721FA02F3D040C2F120024A
:1007F0009140084319467047202A06DBCB17203A60
:1008000041FA02F043EAE07306E041FA02F3D04015
:10081000C2F1200291400843194670470029A8BF41
:100820007047401C490008BF20F00100704710B419
:10083000B0FA80FC00FA0CF050EA010404BF10BCCE
:10084000704749B1CCF1200421FA04F411FA0CF1FB
:1008500018BF012121430843A3EB0C01CB1D4FEA34
:1008600000614FEA102042BF002010BC704700EB2F
:10087000C35010440029A4BF10BC7047401C49005D
:1008800008BF20F0010010BC704710B5141E73F1B2
:10089000000408DA401C41F1000192185B411A4340
:1008A00001D120F0010010BD2DE9F04D92469B468C
:1008B00011B1B1FA81F202E0B0FA80F22032904632
:1008C000FFF77BFF04460F4640EA0A0041EA0B01AE
:1008D00053465A46084313D0114653EA010019D033
:1008E000C8F140025046FFF777FF05460E465046D6
:1008F00059464246FFF761FF084305D0012004E056
:1009000020463946BDE8F08D0020054346EAE076F2
:100910002C4337430A986305E40AA0EB0800002241
:10092000FD0A44EA47540A3002D500200146E9E7AF
:10093000010510196941DDE9084500196941BDE863
:10094000F04DA2E72DE9F04D00231A461B1A8A410B
:1009500003DB00200146BDE8F08DC1F30A52C1F36C
:10096000130141F480154FF0000BD10702D100189C
:100970006D41521E0027044640F2FF11384601EB3C
:10098000620A3E468046024600204FF48011FFF77F
:1009900023FFC2197141BB1846EB0100B4EB030CF5
:1009A00075EB000C04D3E41A65EB000517460E4600
:1009B000241908F101006D4180463428E3DDF9195E
:1009C00046EB0600091BA84103D24FF0FF32134645
:1009D00001E0002213461BEB070046EB0A51BDE87D
:1009E000F04DFFF752BFC1F30A52C1F3130140F2B9
:1009F000FF3341F480119A4202DA00200146704729
:100A000040F233439A42A2F2334202DC5242FFF7F1
:100A1000E3BEFFF7D2BE0000064C074D06E0E068DB
:100A200040F0010394E8070098471034AC42F6D335
:100A3000FFF7AEFB94230108B423010870B58C18AE
:100A400010F8015B15F0070301D110F8013B2A11E2
:100A500006D110F8012B03E010F8016B01F8016BCF
:100A60005B1EF9D12B0705D40023521E0DD401F8CB
:100A7000013BFAE710F8013BCB1A921C03E013F894
:100A8000015B01F8015B521EF9D5A142D8D30020C9
:100A900070BD21B1826842F00102826003E0826889
:100AA00022F00102826070470021084A1168084A5A
:100AB0001140D0E900231A4383681A43C3681A43DC
:100AC0001143044AC2F80413704700000423014094
:100AD000E030FCFF0020014021B1826842F48072C6
:100AE000826003E0826822F480728260704721B1E4
:100AF000826842F40072826003E0826822F400722D
:100B00008260704730B50246002000235068104CC8
:100B100020400D790C6844EA052420435060906819
:100B20000C4C2040D1E903542C438D682C434D7963
:100B300044EA450420439060D06A20F470000C7DA4
:100B4000641EE4B2234340EA0350D06230BD00008B
:100B5000FFFEFFFCFDF7FFC0F0B504460D46002088
:100B60000021092D11DDE068A5F10A0606EB460714
:100B7000072606FA07F18843A5F10A0606EB4606A2
:100B800003FA06F10843E0600CE0206905EB450735
:100B9000072606FA07F1884305EB450603FA06F136
:100BA00008432061072A0FDA606B561E06EB8607A2
:100BB0001F2606FA07F18843561E06EB860605FA3D
:100BC00006F10843606322E00D2A0FDA206BD61F7E
:100BD00006EB86071F2606FA07F18843D61F06EBA9
:100BE000860605FA06F10843206310E0E06AA2F1E8
:100BF0000D0606EB86071F2606FA07F18843A2F1C9
:100C00000D0606EB860605FA06F10843E062F0BD24
:100C1000816841F0804181607047000038B1084927
:100C2000096841F40001074AC2F8041306E00449C8
:100C3000096821F40001034AC2F804137047000058
:100C4000042301400020014010B52DED108B8AB027
:100C5000F0EE408AB0EE60BAB0EE418A9FEDF80A3D
:100C6000F0EE40DA9FEDF70AB0EE40EA9FEDF50AAC
:100C7000F0EE40EA9FEDF20AB0EE409A9FEDF00AE6
:100C8000F0EE409A9FEDEE0AB0EE40AA9FEDEC0A1E
:100C9000F0EE40AA9FEDEA0AF0EE40BA9FEDE80AB6
:100CA000B0EE40CA9FEDE60AF0EE40CA9FEDE40ABE
:100CB000B0EE40DAB0EE680A08EE6E0AB0EE40FA26
:100CC000B0EE4B0A08EE0E0A8DED090A6FEE0F0A20
:100CD0009DED090A40EE000A10EE901A0846FFF753
:100CE000C5FCCDE900019DED000B0CF017FB8DED6F
:100CF000020B9DED020B51EC100BFFF7FBFC0BEE12
:100D0000900AB0EE680A08EE6E0AF0EE40FAB0EE15
:100D10004B0A08EE4E0A8DED080A6FEEAF0A9DED04
:100D2000080A40EE000A10EE901A0846FFF79EFCF3
:100D3000CDE900019DED000B0CF0F0FA8DED020BFA
:100D40009DED020B51EC100BFFF7D4FC0CEE100ADA
:100D5000B0EE680A08EE2E0A8DED070AB0EE4B0AD7
:100D600008EE4E0A8DED060A9DED070A60EE000AB8
:100D70009DED060A40EE000A10EE901A0846FFF7B5
:100D800075FCCDE900019DED000B0CF0C7FA8DED6F
:100D9000020B9DED020B51EC100BFFF7ABFC0CEEC0
:100DA000900AB0EE680A08EE2E0A8DED050AB0EE44
:100DB0004B0A08EE0E0A8DED040A9DED050A60EE61
:100DC000000A9DED040A40EE000A10EE901A084653
:100DD000FFF74CFCCDE900019DED000B0CF09EFAF5
:100DE0008DED020B9DED020B51EC100BFFF782FC19
:100DF0000DEE100A0220944981F84D0018EE900A79
:100E0000FFF734FCCDE900019DED000B0CF07CFAFE
:100E10008DED020B9FED8D0B53EC102B9DED020B16
:100E200051EC100BFFF74EFC7ED28FEE2B0A10EE2A
:100E3000104A2046FFF71AFCCDE900019DED000B9A
:100E40000BF016FC8DED020B9DED020B51EC100B1F
:100E5000FFF750FC09EE100A8FEE8C0A10EE104AD4
:100E60002046FFF703FCCDE900019DED000B0BF0E0
:100E7000FFFB8DED020B9DED020B51EC100BFFF70C
:100E800039FC09EE900A9DED070AC0EE2C0A10EE1F
:100E9000904A2046FFF7EAFBCDE900019DED000BEB
:100EA0000BF0E6FB8DED020B9DED020B51EC100BF0
:100EB000FFF720FC0AEE100A9DED050AC0EE0D0AB0
:100EC00010EE904A2046FFF7D1FBCDE900019DEDE1
:100ED000000B0BF0CDFB8DED020B9DED020B51ECE9
:100EE000100BFFF707FC0AEE900A9FED5A0AB4EECA
:100EF000C09AF1EE10FA05DD9FED570A30EE490A6F
:100F0000B0EE409A9FED530AF4EEC09AF1EE10FA5B
:100F100005DD9FED510A30EE690AF0EE409A9FED33
:100F20004D0AB4EEC0AA00E098E0F1EE10FA05DD3B
:100F30009FED490A30EE4A0AB0EE40AA9FED450AFD
:100F4000F4EEC0AAF1EE10FA05DD9FED430A30EE93
:100F50006A0AF0EE40AAF5EEC08AF1EE10FA0DDB57
:100F6000B5EEC08AF1EE10FA08DBB1EE690AF0EED8
:100F7000409AB1EE4A0AB0EE40AA6AE1F5EEC08AA4
:100F8000F1EE10FA0DDBB5EEC08AF1EE10FA08D2E0
:100F9000B1EE490AB0EE409AB1EE6A0AF0EE40AA0C
:100FA00057E1F5EEC08AF1EE10FA21D2B5EEC08A13
:100FB000F1EE10FA1CD8B1EE490AB0EE409AB1EE4B
:100FC0006A0AF0EE40AAF0EE6BDAB1EE4D0AF0EEEE
:100FD00040BAB1EE6D0AB0EE40DAF0EE4CDAB1EEA6
:100FE0006C0AB0EE40CAB1EE6D0AF0EE40CA30E1D4
:100FF000F5EEC08AF1EE10FABFD2B5EEC08AF1EE7E
:1010000010FABADDB1EE690AF0EE409AB1EE4A0A82
:10101000B0EE40AAF0EE6BDAB1EE4D0AF0EE40BA57
:10102000B1EE6D0AB0EE40DAF0EE4CDAB1EE6C0AD9
:10103000B0EE40CAB1EE6D0AF0EE40CA09E1000020
:1010400000000000CDCCCC3E540700207B14AE47FE
:10105000E17A843FDA0FC93FDA0F494018EE900A6F
:10106000FFF704FBCDE900019DED000B0CF04CF9FE
:101070008DED020B1FED0B0B53EC102B9DED020BB6
:1010800051EC100BFFF706FB7ED218EE100AFFF7AB
:10109000EDFACDE900019DED000B0CF035F98DED79
:1010A000020B1FED160B53EC102B9DED020B51ECB8
:1010B000100BFFF707FB67D28FEE2B0A10EE104ADA
:1010C0002046FFF7D3FACDE900019DED000B0BF0B0
:1010D000CFFA8DED020B9DED020B51EC100BFFF7DB
:1010E00009FB09EE100A8FEE8C0A10EE104A20461A
:1010F000FFF7BCFACDE900019DED000B0BF0B8FA4B
:101100008DED020B9DED020B51EC100BFFF7F2FA87
:1011100009EE900A9DED070AC0EE2C0A10EE904AE7
:101120002046FFF7A3FACDE900019DED000B0BF07F
:101130009FFA8DED020B9DED020B51EC100BFFF7AA
:10114000D9FA0AEE100A9DED050AC0EE0D0A10EE5E
:10115000904A2046FFF78AFACDE900019DED000B89
:101160000BF086FA8DED020B9DED020B51EC100B8E
:10117000FFF7C0FA0AEE900A1FED4A0AB4EEC09AD1
:10118000F1EE10FA07DD00E043E01FED4D0A30EE0E
:10119000490AB0EE409A1FED510AF4EEC09AF1EE02
:1011A00010FA05DD1FED540A30EE690AF0EE409AA0
:1011B0001FED580AB4EEC0AAF1EE10FA05DD1FEDDE
:1011C0005A0A30EE4A0AB0EE40AA1FED5E0AF4EE6B
:1011D000C0AAF1EE10FA05DD1FED610A30EE6A0AD1
:1011E000F0EE40AAB5EEC08AF1EE10FA08DDB1EEDD
:1011F000690AF0EE409AB1EE4A0AB0EE40AA28E041
:10120000B1EE490AB0EE409AB1EE6A0AF0EE40AA99
:101210001FE01FED750AB0EE409A1FED770AF0EE61
:10122000409A1FED790AB0EE40AA1FED7B0AF0EE5E
:1012300040AA1FED7D0AF0EE40BA1FED7F0AB0EE26
:1012400040CA1FED810AF0EE40CA1FED830AB0EEDE
:1012500040DA9FED740A29EE000AB0EE409A9FED45
:10126000710A29EE800AF0EE409A9FED6E0A2AEE8E
:10127000000AB0EE40AA9FED6B0A2AEE800AF0EE5B
:1012800040AA9FED690AB4EEC09AF1EE10FA04DDAF
:101290009FED650AB0EE409A0AE09FED640AB4EE55
:1012A000C09AF1EE10FA03D29FED600AB0EE409AB8
:1012B0009FED5D0AF4EEC09AF1EE10FA04DD9FEDA9
:1012C0005A0AF0EE409A0AE09FED580AF4EEC09AEE
:1012D000F1EE10FA03D29FED550AF0EE409A9FED21
:1012E000520AB4EEC0AAF1EE10FA04DD9FED4E0AE8
:1012F000B0EE40AA0AE09FED4D0AB4EEC0AAF1EEAE
:1013000010FA03D29FED490AB0EE40AA9FED460ABB
:10131000F4EEC0AAF1EE10FA04DD9FED430AF0EE00
:1013200040AA0AE09FED410AF4EEC0AAF1EE10FADD
:1013300003D29FED3E0AF0EE40AA9FED3D0A29EE52
:10134000000AF7EE000A80EE201ABDEEC10A10EE88
:10135000100A3849C8619FED360A29EE800AF7EE77
:10136000000A80EE201ABDEEC10A10EE100A0862D3
:101370009FED2F0A2AEE000AF7EE000A80EE201AEF
:10138000BDEEC10A10EE100A48629FED290A2AEE4E
:10139000800AF7EE000A80EE201ABDEEC10A10EEB8
:1013A000100A88629FED240A2BEEC00AF7EE000AAD
:1013B00080EE201ABDEEC10A10EE100A00B248807D
:1013C0009FED1D0A2CEE400AF7EE000A80EE201A6F
:1013D000BDEEC10A10EE100A01B2164881809FEDE1
:1013E000160A2CEE800AF7EE000A80EE201ABDEEF7
:1013F000C10A10EE100A01B20E48C1809FED0E0A1C
:101400002DEE000AF7EE000A80EE201ABDEEC10AAA
:1014100010EE100A01B2074801810AB0BDEC108B32
:1014200010BD00003333654200007042000070C2FE
:101430000000C84254070020160D8C42F0B585B05C
:101440000446402646F27805002704F5C060009067
:1014500000208DF808008DF8090008208DF80A009A
:101460008DF80B60E9B28DF80C1029128DF80D1073
:101470008DF80E7000218DF80F108DF810108DF87A
:1014800011108DF812106946024800F09FFB05B05C
:10149000F0BD00000064004010B504460B2246F287
:1014A000F701204603F038FD10BD00BFFEE7000045
:1014B00010B50221074800F06FF9012809D1064A4A
:1014C0000021044800F0FAFA02F01CFF0120034951
:1014D000087010BD00640040080600204300002092
:1014E00010B50221064800F057F9012807D1054A36
:1014F0000021034800F0E2FA01200349087010BD02
:10150000006800401C0600204500002070B504461D
:101510000D46204600F0DAF82946204600F060FA31
:10152000204600F0A5F8204600F09EFA70BD0000AD
:1015300010B504460B48844209D10121480605F044
:10154000BBFA00214FF0007005F0B6FA08E0012167
:10155000880605F0B1FA00214FF0806005F0ACFA82
:1015600010BD00000064004010B50021837A012204
:1015700002FA03F13D4A126842F001023B4B1A6045
:101580003A4A1C3212688A43384B1C331A60027B79
:10159000CAB9364A0C3212688A43344B0C331A608B
:1015A0004288C38842EA0343304A4032847A42F890
:1015B00034300288838842EA03432C4A4032847ADA
:1015C00002EBC4025360027B012A19D1274A0C3274
:1015D00012680A43254B0C331A604288038842EA9A
:1015E0000343224A4032847A42F83430C2888388E6
:1015F00042EA03431D4A4032847A02EBC40253603C
:10160000C27A3AB9194A121D12688A43174B1B1D38
:101610001A6006E0154A121D12680A43134B1B1D7F
:101620001A60028932B9114A143212688A430F4B88
:1016300014331A600289012A06D10C4A1432126846
:101640000A430A4B14331A60427B012A06D1074A27
:101650001C3212680A43054B1C331A60034A126895
:1016600022F00102014B1A6010BD0000006600402C
:101670001FB504461448844203D100208DF80A00A7
:1016800002E00E208DF80A0000208DF80B000120EA
:101690008DF80C000020ADF8000042F60440ADF8D3
:1016A00002000020ADF80400ADF80600ADF8080017
:1016B00001208DF80D006846FFF756FF0122022138
:1016C000204600F0F9F81FBD006400401CB5044638
:1016D0002E4884422BD10121480605F0DDF9012175
:1016E000082005F0C9F909220021294801F062F813
:1016F00009220121264801F05DF8022000908DF8B2
:1017000004008DF8050000208DF8060001208DF8FA
:10171000070069461E4801F005F8012000900220EC
:101720008DF8040069461A4800F0FCFF2DE0012105
:10173000880605F0B1F90121022005F09DF9092282
:101740000C21144801F036F809220D21114801F04E
:1017500031F84FF40050009002208DF804008DF80D
:10176000050000208DF8060001208DF8070069466D
:10177000084800F0D7FF4FF48050009002208DF809
:1017800004006946034800F0CDFF1CBD0064004022
:10179000000C02400004024070B504460D460026CD
:1017A00060692840002871D0B5F5807F5CD010DCDE
:1017B000082D35D006DC012D20D0022D24D0042D9B
:1017C00072D127E0102D31D0202D35D0402D6BD196
:1017D00038E0B5F5004F60D009DCB5F5007F49D0A1
:1017E000B5F5806F4CD0B5F5006F5DD14FE0B5F524
:1017F000803F2DD0B5F5003F56D12FE0A0682D4990
:1018000000F050FD064651E0E068032100F04AFD7B
:1018100006464BE0E068082100F044FD064645E03E
:10182000E068102100F03EFD06463FE020690321FC
:1018300000F038FD064639E02069082100F032FD4D
:10184000064633E02069102100F02CFD06462DE00D
:101850006068082100F026FD064627E06068102138
:1018600000F020FD064621E0A069012100F01AFDEC
:1018700006461BE0A069022100F014FD064615E0B3
:10188000A069042100F00EFD06460FE00FE0A069FC
:10189000702100F007FD064608E06068042100F0B2
:1018A00001FD064602E0FFE7002600BF00E000263B
:1018B000304670BD010101001AB143690B43436119
:1018C00002E043698B434361704730B50246002014
:1018D0000023146824F002041460146844F0010426
:1018E000146000E05B1C546804F001041CB94FF65E
:1018F000FF74A342F6D1546804F001040CB900202F
:101900006CE08C79012C04D1146844F080041460DC
:1019100003E0146824F080041460CC79012C04D115
:10192000146844F04004146003E0146824F0400498
:1019300014600C7A012C04D1146844F02004146063
:1019400003E0146824F0200414604C7A012C04D1C4
:10195000146844F01004146003E0146824F01004C8
:1019600014608C7A012C04D1146844F008041460CB
:1019700003E0146824F008041460CC7A012C04D12C
:10198000146844F00404146003E0146824F00404B0
:1019900014608C78A407CD7844EA05640D7944EA94
:1019A00005444D7944EA05540D886D1E2C43D461DD
:1019B000146824F001041460002300E05B1C5468E8
:1019C00004F001041CB14FF6FF74A342F6D1546831
:1019D00004F001040CB1002000E0012030BD000043
:1019E0003EB505460C461F48854204D101214806F4
:1019F00005F052F804E001214FF0C06005F04CF80A
:101A00002846FFF795FD684600F0D0F800208DF8D5
:101A1000060001208DF807008DF8080000208DF8E1
:101A200009008DF80A008DF80B008DF802000120E6
:101A30008DF8030003208DF8040001208DF80500C7
:101A4000B4F5FA7F03D10C20ADF8000005E0B4F541
:101A50007A7F02D10620ADF8000069462846FFF7DC
:101A600034FF3EBD0064004038B504464FF4C0600A
:101A700004F07CFE104884420ED114208DF8000042
:101A800000208DF801008DF8020001208DF8030080
:101A9000684604F02FFE0DE040208DF80000002085
:101AA0008DF8010001208DF802008DF803006846D2
:101AB00004F020FE38BD00000064004010B500F5C1
:101AC000D87303EB01131B6803F004031372137A3A
:101AD00053B900F5D87303EB01131B6840F2FF7490
:101AE00004EA5353136009E000F5D87303EB0113C4
:101AF0001B686FF0604404EAD303536000F5D873A9
:101B000003EB01131B6803F00203537200F5D87353
:101B100003EB01135B6803F00F03937200F5D873B6
:101B200003EB01135B681B0AD37400F5D87303EB56
:101B300001139B68D37200F5D87303EB01139B6804
:101B40001C0A147300F5D87303EB01139B681C0C7B
:101B5000547300F5D87303EB01139B681B0E93734A
:101B600000F5D87303EB0113DB68D37300F5D8736A
:101B700003EB0113DB681C0A147400F5D87303EB44
:101B80000113DB681C0C547400F5D87303EB0113CC
:101B9000DB681B0E937421B9C36843F02003C36054
:101BA00003E0036943F02003036110BD002181714C
:101BB000C171017241728172C1728170C170032161
:101BC00001710221417101210180704710B5024667
:101BD0000020936803F08063B3F1806F00D110E0C0
:101BE000936803F00063B3F1006F01D1012008E0B6
:101BF000936803F08053B3F1805F01D1022000E0CD
:101C00000420042874D002F5C07303EB00131B6892
:101C100003F0010402F5C07303EB00131C600B7AA0
:101C20007BB94B7A0C8843EA445302F5C07404EB49
:101C300000142468234302F5C07404EB00142360ED
:101C400010E00B7A4C6843EAC4034C7A234302F554
:101C5000C07404EB00142468234302F5C07404EB41
:101C6000001423608B7A03F00F038B7202F5C073AC
:101C700003EB00135B6823F00F0402F5C07303EB62
:101C800000135C6002F5C07303EB00135B688C7A91
:101C9000234302F5C07404EB001463608B7B1C06C5
:101CA0004B7B44EA03440B7B44EA0323CC7A234373
:101CB00002F5C07404EB0014A3608B7C1C064B7C03
:101CC00044EA03440B7C44EA0323CC7B234302F520
:101CD000C07404EB0014E36002F5C07303EB00135F
:101CE0001B6843F0010402F5C07303EB00131C6092
:101CF00010BD000010B50346042B15D007DC7BB1E6
:101D0000012B0ED0022B0DD0032B3CD10BE0202B4E
:101D10000BD0212B1CD0222B33D0232B33D131E0FD
:101D200032E031E030E02FE02EE008784C7840EAF5
:101D300004208C7840EA0440CC7840EA0460144CDB
:101D4000206008792071487960718879A0711BE062
:101D50000F48007808700E480088000A48700C4848
:101D60000068000C88700A480068000EC8700848B7
:101D70000079087106484079487105488079887172
:101D800002E001E000E000BF00BF002010BD000045
:101D9000240100200020704710B50349034808F0D3
:101DA0007BF8002010BD0000D0100020D4020020DD
:101DB00070B504460D46074808F049F8C8220649A0
:101DC0000648FEF72EFAC82104480CF081F80020DE
:101DD00070BD0000D4020020D01000209811002017
:101DE00010B52DED068B35488168406C084400EE37
:101DF000100AB8EEC00ADFED320A80EE201AF0EECB
:101E0000418A2E48D0F8BC10D0F88000084400EE7B
:101E1000100AB8EEC00ADFED2A0A80EE201AB0EEF2
:101E2000418A9FED280A28EE000AB0EE408A9FED15
:101E3000250A28EE800AF0EE408A38EE280AF0EEF5
:101E4000000A80EE201A204880ED001A9FED1F0A3C
:101E50001F4880ED000A1F4890F84C0028B31D4829
:101E600090ED080A1C4880ED000A90ED000A10EE83
:101E7000100AFEF7FBFB41EC1A0BB0EE4A0AF0EE3B
:101E80006A0A0BF041FAB0EE409AF0EE609A9FEDCC
:101E9000130B53EC102B51EC190BFEF7FBFB04D288
:101EA0009FED0A0A0C4880ED000A0B4890ED000AED
:101EB0000C4880ED000ABDEC068B10BDC407002065
:101EC0000000FA44C0922B3C8C000020000000006F
:101ED00090000020B4080020980000207B14AE473A
:101EE000E17A743F9400002010B52DED028B04467A
:101EF000012005F09BFF012810D0374890F83400EE
:101F000018B136480068142808D8354800681428E5
:101F100018D9314890F82000012813D10020314908
:101F200081F8340081F84C00C86100212D4801621D
:101F30004162816200202B4948800021294881802C
:101F4000C1800181012C06D0022C13D0032C20D09B
:101F5000042C3CD12CE02349B1F90200FEF730FB00
:101F600041EC180BB0EE480AF0EE680A012003F0CD
:101F700085F82DE01B49B1F90400FEF721FB41EC87
:101F8000180BB0EE480AF0EE680A022003F076F86B
:101F90001EE01449B1F90600FEF712FB41EC180BE4
:101FA000B0EE480AF0EE680A032003F067F80FE08D
:101FB0000C49B1F90800FEF703FB41EC180BB0EE39
:101FC000480AF0EE680A042003F058F800E000BF69
:101FD00000BFBDEC028B10BD58060020240000207D
:101FE00028000020540700200020154908709FEDAC
:101FF000150A084680ED010A9FED120A80ED020ADB
:102000009FED100A80ED030A00200F4908709FED34
:102010000D0A084680ED010A9FED0A0A80ED020ACA
:102020009FED080A80ED030A9FED060A074880ED40
:10203000000A9FED040A064880ED000A7047000080
:10204000A407002000000000B4070020A400002026
:10205000A800002010B5084890ED0F1AF0EE410AD4
:1020600090ED101AB0EE410A09F01EFF03F0FCFCDF
:10207000FFF7B6FE10BD000054070020F0B587B092
:102080000024002600270025AE222146641C0DF8FE
:102090000120EA222146641C0DF80120012221467C
:1020A000641C0DF80120A7222146641C0DF80120B4
:1020B0003C4890ED000ADFED3C0A20EE200AF7EEE6
:1020C000000A80EE201ABDEEC10A10EE100A05B219
:1020D000C5F307222146641C0DF80120EAB221460F
:1020E000641C0DF80120314890ED000ADFED2E0A46
:1020F00020EE200AF7EE000A80EE201ABDEEC10A9B
:1021000010EE100A05B2C5F307222146641C0DF833
:102110000120EAB22046611CCCB20DF80020244810
:1021200090ED000ADFED200A20EE200AF7EE000A0B
:1021300080EE201ABDEEC10A10EE100A05B2C5F3FA
:1021400007222046611CCCB20DF80020EAB22046DE
:10215000611CCCB20DF80020601EC0B28DF80200E8
:10216000022604E01DF806000744701CC6B2A64211
:10217000F8DBFAB22046611CCCB20DF80020EF2249
:102180002046611CCCB20DF80020FE222046611CC6
:10219000CCB20DF8002022466946064806F0DCFE67
:1021A00007B0F0BD8C00002000007A4490000020B1
:1021B000940000200010014070B58AB00024002572
:1021C0000026AE222146641C01A84254EA22214680
:1021D000641C425401222146641C4254AD22214613
:1021E000641C42542C4890F84D202146641C01A8E0
:1021F00042542A4890F820202146641C01A84254E9
:1022000000222146641C42542046611CCCB201A924
:102210000A542046611CCCB201A90A542046611C14
:10222000CCB201A90A542046611CCCB201A90A54BF
:102230002046611CCCB201A90A542046611CCCB2D4
:1022400001A90A542046611CCCB201A90A54601E9F
:10225000C0B28DF80600022504E001A8405D0644E6
:10226000681CC5B2A542F8DB2046611CCCB201A9AE
:102270000E54EF222046611CCCB201A90A54FE2262
:102280002046611CCCB201A90A542246044806F03B
:1022900063FE0AB070BD00005407002058060020FD
:1022A000001001400246002002EA01030BB10120A8
:1022B00000E000207047000010B50D490D4800F007
:1022C00057F9A0B10A490B4800F076F819200949DE
:1022D000091D086004F094FC10B100200649086054
:1022E0000121044800F082F801200449087010BD63
:1022F0000088002088600240240000204000002068
:1023000010B50F490F4800F033F9B8B100210D485E
:1023100000F06CF80A490B4800F04EF840210A48DA
:1023200007F06CFB28200749091D086001210548BA
:1023300000F05CF84021054800F06CFA10BD000088
:102340000080201040640240001001400014024050
:1023500010B54021084800F05DFA0849084800F02F
:1023600007F938B10021064800F040F80349044855
:1023700000F008F810BD00000014024000800028A2
:10238000B86402400246094B9A4201D2084801E073
:102390000648103801F000531BB1064B0B40C360D8
:1023A00002E0044B0B408360704700001064024061
:1023B000006002407D0F7D0F0246094B9A4201D218
:1023C000084801E00648103801F000531BB1064BE5
:1023D0000B40C36002E0044B0B4083607047000079
:1023E00010640240006002407D0F7D0F21B1026841
:1023F00042F00102026003E0026822F00102026082
:1024000070470000016821F00101016000210160B6
:1024100041608160C1600161212141614A49884276
:1024200004D13D21484A103A91608CE04649183168
:10243000884205D14FF47461434A103A916082E0BA
:1024400041493031884205D14FF474113E4A103A67
:10245000916078E03C494831884205D14FF0746181
:10246000394A103A91606EE037496031884204D1B0
:102470003649354A103AD16065E0334978318842AF
:1024800004D13349304A103AD1605CE02E49903192
:10249000884204D12F492C4A103AD16053E02A498E
:1024A000A831884205D14FF03D51274A103AD160FA
:1024B00049E02949884204D13D21274A083A116060
:1024C00041E025491831884205D14FF47461224A10
:1024D000083A116037E020493031884205D14FF485
:1024E00074111D4A083A11602DE01B494831884299
:1024F00005D14FF07461184A083A116023E016497B
:102500006031884204D11149134A121F11601AE048
:1025100011497831884204D10D490F4A121F1160C8
:1025200011E00D499031884204D10A490A4A121F2C
:10253000116008E00849A831884204D14FF03D51AC
:10254000054A121F11607047106002403D000020D4
:10255000400F002000003D20106402400146002092
:102560000A6802F001020AB1012000E00020704771
:1025700070B50246002000240025124EB24201D25E
:10258000114B01E00F4B103B104E0E4036B11E2692
:1025900006EAD124166806EA040502E0566906F048
:1025A000800501F000560EB15C6800E01C68084E22
:1025B000344004EA010616B10DB1012000E000200C
:1025C00070BD000010640240006002403C0F3C0FF0
:1025D0007D0F7D0F10B501F080034BB122B143692F
:1025E00043F08003436103E0436923F080034361C8
:1025F00080290BD02AB1036801F01E042343036035
:1026000004E0036801F01E04A343036010BD000052
:1026100010B500220268134B1A40CC680B682343A4
:102620004C6923438C692343CC6923430C6A2343BD
:102630004C6A23438C6A23434C6B23438C6B2343A8
:102640001A430260426922F00702D1E90B342343A6
:102650001A4342610B6943604B6883608B68C360B7
:1026600010BD00003F801CF0704700000749086063
:102670004FF0E021096941F001014FF0E0221161C2
:1026800000BF024909680029FBD17047D80000202B
:1026900010B5012000F016F810B1012000F00CF880
:1026A00010BD10B54FF4005000F00CF818B14FF405
:1026B000005000F001F810BD0149086070470000AB
:1026C000143C014001460020034A12680A400AB146
:1026D000012000E000207047143C014010B5044682
:1026E000012C04D120210C4800F018F813E0022C32
:1026F00004D11021084800F011F80CE0032C04D19B
:102700000821054800F00AF805E0042C03D1042153
:10271000014800F003F810BD0014024042694A402D
:1027200042617047F0B50A4600210023002400BF33
:102730003DE0012505FA01F3156805EA03049C4212
:1027400034D105684F000326BE40B54305601579B6
:102750004E00B5400668354305601579012D02D05D
:102760001579022D16D185684F000326BE40B5436A
:10277000856055794E00B54086683543856045686B
:1027800001268E40B5434560456896798E40B6B2C5
:1027900035434560C5684F000326BE40B543C5605C
:1027A000D5794E00B540C6683543C560491C10292F
:1027B000BFD3F0BDF0B5002300244D07ED0E02FAA3
:1027C00005F3CE1000F1200555F826504E07F70E00
:1027D0000F26BE40B543CF1000F1200646F8275023
:1027E000CE1000F1200555F8265045EA0304CE101E
:1027F00000F1200545F82640F0BD0246002013698F
:102800000B400BB1012000E000207047418370476E
:102810000183704742694A404261704770B50A4877
:102820000468001D0568001D0668344454B1082280
:102830000649204601F010FA0422044910312846C6
:1028400001F00AFA70BD0000107AFF1F7E0100201F
:10285000704702461068416200207047F0B5034699
:1028600015461868446A21B944EA05401E68B062FA
:1028700019E01868806A04EB1044002208E0186828
:1028800000F5827050F8220004EB1044501CC2B2D4
:10289000481E9042F3D844EA0547186800F5827054
:1028A0004E1E40F826700020F0BD000010B5044612
:1028B000012003490870D4F8040407F0B6FE10BDE7
:1028C0004401002070B504460D46C5EBC50304F174
:1028D0003C0101EB8301CA682946D4F8040407F0DF
:1028E000ECFD70BD70B504460D46C5EBC50304F59F
:1028F000FE7101EB8301CA682946D4F8040407F08D
:102900004DFE70BD10B5044600200549087005A0B5
:1029100009F072FED4F8040407F08AFE10BD00002E
:102920004401002055534220446576696365204484
:102930006973636F6E6E65637465642E0D0A0000C3
:1029400070B504460E4606F0800080280AD106F0D5
:102950000F00C0EBC00104F13C0000EB8105012039
:10296000687009E006F00F00C0EBC00104F5FE70CE
:1029700000EB81050020687006F00F00287000BF92
:1029800094F8BC03012801D1022070BD012084F815
:10299000BC0300BF2946206808F000FC00BF0020EF
:1029A00084F8BC0300BF00BFEFE770B504460E46D5
:1029B00006F00F006168884201D9012070BD06F061
:1029C000800080280AD106F00F00C0EBC00104F19E
:1029D0003C0000EB81050120687009E006F00F0063
:1029E000C0EBC00104F5FE7000EB810500206870AB
:1029F0000020A87006F00F00287000BF94F8BC03F8
:102A0000012801D10220D9E7012084F8BC0300BFCE
:102A10002946206808F0A8FE00BF002084F8BC0307
:102A200000BF00BFCAE7024601F00F00C0EBC003C1
:102A300002F5FE7000EB8300806970472DE9F047D6
:102A400005460E4690461F464FF0000906F08000EE
:102A500080280AD106F00F00C0EBC00105F13C0050
:102A600000EB81040120607009E006F00F00C0EB6C
:102A7000C00105F5FE7000EB81040020607006F0D7
:102A80000F002070C4F80880E770607808B12078E3
:102A9000E080022F01D10020207100BF95F8BC0317
:102AA000012802D10220BDE8F087012085F8BC038F
:102AB00000BF2146286808F08DFA00BF002085F885
:102AC000BC0300BF4846EEE72DE9F04104460E4640
:102AD0001746984606F00F00C0EBC00104F5FE70E3
:102AE00000EB8105EF60C5F814800020A8616870D4
:102AF00006F00F0028702069012800D12F6106F030
:102B00000F0028B9227C2946206808F009FD04E05E
:102B1000227C2946206808F0BBFE0020BDE8F08139
:102B200070B504460D4605F00F006168884201D972
:102B3000012070BD05F0800080280AD105F00F004B
:102B4000C0EBC00104F13C0000EB81060120707075
:102B500007E0C5EBC50104F5FE7000EB810600201F
:102B600070700120B07005F00F00307000BF94F855
:102B7000BC03012801D10220DBE7012084F8BC035B
:102B800000BF3146206808F036FE05F00F0028B976
:102B9000217C04F57172206808F0AEFD00BF0020B2
:102BA00084F8BC0300BF00BFC3E72DE9F041044631
:102BB0000E461746984606F00F00C0EBC00104F120
:102BC0003C0000EB8105EF60C5F814800020A8618F
:102BD0000120687006F00F0028702069012800D1DC
:102BE0002F6106F00F0028B9227C2946206808F0E2
:102BF00097FC04E0227C2946206808F049FE00206A
:102C0000BDE8F0812DE9FC5F044620680190019D3C
:102C1000206809F028F800287DD1206809F062F8C2
:102C200008B9BDE8FC9F206809F05CF800F00200DC
:102C3000022805D12068406900F00200216848613F
:102C4000206809F04FF800F01000102846D12068E5
:102C5000806920F01000216888610198D0F82090E8
:102C600009F00F00C0EBC00104F5FE7000EB810B12
:102C7000C9F3434002281AD147F6F07009EA000070
:102C800030B3C9F30A12DBF80C10019809F02FF8E1
:102C9000C9F30A11DBF80C000844CBF80C00C9F3A7
:102CA0000A11DBF818000844CBF8180010E0C9F34B
:102CB000434006280CD1082204F57171019809F0EF
:102CC00016F8C9F30A11DBF818000844CBF818000D
:102CD0002068806940F0100021688861206809F050
:102CE00001F800F40020B0F5002F52D10026206832
:102CF00008F0C8FF824649E00AF00100E8B3F1B2EB
:102D0000206808F0E2FF804608F0010058B1012178
:102D100005F5306000E01EE200EB461081603146B0
:102D2000204603F08FFD08F00800082809D108218B
:102D300005F5306000EB461081603146204603F017
:102D40004FFD08F01000102805D1102105F5306066
:102D500000EB4610816008F02000202805D12021DA
:102D600005F5306000EB4610816008F40050B0F5C6
:102D7000005F08D14FF4005100E004E005F5306039
:102D800000EB46108160761C4FEA5A0ABAF1000F38
:102D9000B2D1206808F0A6FF00F48020B0F5802FA3
:102DA0007ED1206808F064FF8246002683E00AF0A6
:102DB000010000287CD0F1B2206808F06DFF804649
:102DC00008F00100F0B306F00F01012088400090E8
:102DD00040F634004159009821EA000040F63401E1
:102DE0004851012105F5106000EB46108160206913
:102DF000012824D1C6EBC60104F13C0000EB8100A0
:102E0000C6EBC602C16804F13C0000EB820080689A
:102E10000144C6EBC60204F13C0000EB8200C16035
:102E20006EB9C6EBC60104F13C0000EB81004069BD
:102E300028B904F571720121206808F05DFCF1B237
:102E4000204600E001E0FFF73DFD08F008000828FB
:102E500005D1082105F5106000EB4610816008F0EF
:102E60001000102805D1102105F5106000EB461068
:102E7000816008F04000402805D1402105F5106030
:102E800000EB4610816008F00200022805D1022103
:102E900005F5106000EB4610816008F0800001E04D
:102EA0000DE005E0802803D13146204603F088FD7F
:102EB000761C4FEA5A0ABAF1000F7FF478AF206807
:102EC00008F010FF00F00040B0F1004F1CD140F6B8
:102ED0000400405920F0010140F60400415194F8EB
:102EE000F403012807D1002084F8F40300212046D0
:102EF000FFF7AEFC02E0204600F0BCFA2068406913
:102F000000F0004021684861206808F0EBFE00F402
:102F10000060B0F5006F0ED140F60800405900F097
:102F2000010010B1204600F009FB2068406900F460
:102F3000006021684861206808F0D4FE00F48050E9
:102F4000B0F5805F7DD140F60400405920F00101CA
:102F500040F6040041511021206808F059FE002776
:102F60003EE04FF67F3105F5106000EB47108160C1
:102F700005F5106000EB4710006820F4001105F51E
:102F8000106000EB4710016005F5106000EB471082
:102F9000006840F0006105F5106000EB471001602B
:102FA0004FF67F3105F5306000EB4710816005F585
:102FB000306000EB4710006820F4001105F5306028
:102FC00000EB4710016005F5306000EB471000682A
:102FD00040F0006105F5306000EB471001607F1C98
:102FE0006068B842BDD840F61C00405940F001115D
:102FF00040F61C004151206B70B1D5F8840840F0B8
:103000000B01C5F8841840F64400405940F00B010C
:1030100040F6440041510FE040F61400405942F29E
:103020002B01084340F614014851081F405940F055
:103030000B014FF401604151D5F8000820F4FE6007
:1030400000E00DE0C5F80008217C04F571722068ED
:1030500008F052FB2068406900F480502168486104
:10306000206808F03FFE00F40050B0F5005F14D176
:10307000206808F017F8206808F0E2FDE060227B85
:103080003649206808F07EFE204600F0A7F9206847
:10309000406900F4005021684861206808F022FE71
:1030A00000F00800082808D1204600F0F7F9206851
:1030B000406900F0080021684861206808F012FEAD
:1030C00000F48010B0F5801F0AD10026314620465A
:1030D00000F046F82068406900F4801021684861DB
:1030E000206808F0FFFD00F40010B0F5001F0AD1C1
:1030F00000263146204600F03CF82068406900F484
:10310000001021684861206808F0ECFD00F0804064
:10311000B0F1804F08D12046FFF7C8FB2068406916
:1031200000F0804021684861206808F0DBFD00F075
:10313000040004280FD12068D0F8049009F004009E
:10314000042802D12046FFF7DDFB2068406840EAF2
:1031500009002168486000BF63E50000007A030AA7
:1031600070B504460D462946D4F8040407F0C4FAA5
:1031700070BD70B504460D462946D4F8040407F026
:10318000D3FA70BD70B58AB0044614B901200AB0F4
:1031900070BD266894F8BD0328B9002084F8BC03EC
:1031A000204600F0A3F8032084F8BD03F06B00F480
:1031B000807008B900212161206808F0A9F928224F
:1031C00004F110016846FDF72CF894E80F0007F0B1
:1031D0007DFF20B1022084F8BD030120D7E7002144
:1031E000206808F095FD002531E00121C5EBC502FE
:1031F00004F13C0000EB82004170C5EBC50104F115
:103200003C0000F82150C5EBC50100EB8100C580F2
:103210000021C5EBC50204F13C0000EB8200C17047
:10322000C5EBC50204F13C0000EB82008160C5EBF8
:10323000C50204F13C0000EB8200C160C5EBC50291
:1032400004F13C0000EB82004161681CC5B260687B
:10325000A842CAD800252AE00021C5EBC50204F522
:10326000FE7000EB82004170C5EBC50104F5FE70F5
:1032700000F821500021C5EBC50200EB8200C170AF
:10328000C5EBC50204F5FE7000EB82008160C5EB62
:10329000C50204F5FE7000EB8200C160C5EBC502FB
:1032A00004F5FE7000EB82004161681CC5B26068E5
:1032B000A842D1D8282204F110016846FCF7B1FFDA
:1032C00094E80F0008F034F820B1022084F8BD0320
:1032D00001205CE7002084F83800012084F8BD0359
:1032E000206808F013F8002051E700001CB50446E0
:1032F0002068B0F1A04F32D13448006840F001009E
:1033000032490860081D006840F08000091D08600F
:103310000020032103460222CDE9001091022C482F
:103320000EF000F80020032103460222CDE9001030
:10333000D10227480DF0F6FF0A224FF4006124481D
:103340000DF0BCFF0A224FF4805121480DF0B6FF6A
:1033500002234322032100200EF054F834E01D49DB
:103360002068884230D11948006840F002001749AF
:1033700008600846006840F0005008600020032103
:1033800003460222CDE90010510313480DF0CAFF95
:103390000020032103460222CDE9001091030E48CC
:1033A0000DF0C0FF0C224FF480410B480DF086FF5A
:1033B0000C224FF4004108480DF080FF02234D22FB
:1033C000032100200EF01EF81CBD00003038024022
:1033D00000000240000004400004024070B50446B2
:1033E0000125E06810B102280AD104E00CA009F020
:1033F00003F9002509E011A009F0FEF8012504E019
:1034000015A009F0F9F8012500BF00BFD4F80404A5
:1034100007F0C2F92946D4F8040407F014FA70BD85
:1034200055534220446576696365204C6962726138
:10343000727920205B48535D0D0A000055534220ED
:10344000446576696365204C6962726172792020F7
:103450005B46535D0D0A0000555342204465766972
:103460006365204C69627261727920205B46533F2C
:103470005D0D0A0010B5044603A009F0BDF8D4F8AC
:10348000040407F0BFF910BD4465766963652052F6
:103490006573756D65640D0A0000000010B5044683
:1034A000D4F8040407F0B9F910BD70B504460D4610
:1034B00000BF94F8BC03012801D1022070BD012097
:1034C00084F8BC0300BF84F838502946206808F00F
:1034D0003AFC00BF002084F8BC0300BF00BFEDE74A
:1034E00010B5044604F57171D4F8040407F0C0F96E
:1034F00010BD70B50446256800BF94F8BC030128D0
:1035000001D1022070BD012084F8BC0300BFA06A75
:10351000012806D1A069012803D0A86B40F48030AF
:10352000A863206808F056FB206807F0DDFE00BFA6
:10353000002084F8BC0300BF00BFE3E710B50446D9
:1035400000200549087005A009F056F8D4F80404D5
:1035500007F0DBF910BD00004401002044657669E6
:10356000636520496E2073757370656E64206D6F9E
:1035700064652E0D0A00000000BFFEE710B50CF0D8
:103580002FFC0F4948640846406C096C401A4FF400
:103590007A71B0FBF1F00A4988640846406C08640F
:1035A00001F0AEFE0648806CC82804D9002004490A
:1035B00081F84C0003E00120014981F84C0010BD66
:1035C000B40800202DE9F04389B00024002500262E
:1035D0009848D0ED0E0A9FED981AB6EE000A00EE5C
:1035E000810AF7EE000A80EE201ABDEEC10A10EE45
:1035F000100A07B28F48D0ED0D0A9FED8F1AB6EE74
:10360000000A00EE810AF7EE000A80EE201ABDEEF5
:10361000C10A10EE100A0FFA80F88648D0ED0F0AA2
:103620009FED851AB6EE000A00EE810AF7EE000A59
:1036300080EE201ABDEEC10A10EE100A0FFA80F9D2
:10364000AE222146641C0DF80120EA222146641CAA
:103650000DF8012001222146641C0DF80120A02252
:103660002146641C0DF8012072480088C0F307222F
:103670002146641C0DF801206E480088C2B2214624
:10368000641C0DF801206B484088C0F307222146D6
:10369000641C0DF8012067484088C2B22046611CB6
:1036A000CCB20DF8002063488088C0F30722204682
:1036B000611CCCB20DF800205E488088C2B2204662
:1036C000611CCCB20DF800205A48C088C0F3072214
:1036D0002046611CCCB20DF800205648C088C2B20A
:1036E0002046611CCCB20DF8002052480089C0F37E
:1036F00007222046611CCCB20DF800204D480089FD
:10370000C2B22046611CCCB20DF800204948408965
:10371000C0F307222046611CCCB20DF800204548BA
:103720004089C2B22046611CCCB20DF8002041484D
:103730008089C0F307222046611CCCB20DF800201E
:103740003C488089C2B22046611CCCB20DF80020F2
:103750003848C089C0F307222046611CCCB20DF85E
:1037600000203448C089C2B22046611CCCB20DF89A
:1037700000203048008AC0F307222046611CCCB2EA
:103780000DF800202B48008AC2B22046611CCCB242
:103790000DF80020C7F307222046611CCCB20DF8BB
:1037A0000020FAB22046611CCCB20DF80020C8F30C
:1037B00007222046611CCCB20DF8002008F0FF0261
:1037C0002046611CCCB20DF80020C9F30722204628
:1037D000611CCCB20DF8002009F0FF022046611CEC
:1037E000CCB20DF80020601EC0B28DF80200022598
:1037F00004E01DF805000644681CC5B2A542F8DBCC
:10380000F2B22046611CCCB20DF80020EF22204617
:10381000611CCCB20DF80020FE222046611CCCB207
:103820000DF8002022466946044805F095FB09B0D2
:10383000BDE8F083B40800200000C8420010014039
:103840000A2000BF011EA0F10102D0B2FADC7047CD
:103850001CB50121022003F00FF901208DF80400AE
:1038600000208DF80600C020009001208DF8070090
:1038700002208DF8050069460548FEF753FFFFF763
:10388000DFFFFFF7DDFFFFF7DBFFFFF7D9FF1CBD11
:103890000004024010B540210F48FEF7B7FF0E4864
:1038A000006820F440400C4908600846006840F475
:1038B0008040086080210848FEF7A8FFFFF7C0FF9E
:1038C00040210548FEF7A4FFFFF7BAFF4021024858
:1038D000FEF79CFF10BD00000004024010B540211F
:1038E0000F48FEF793FF0E48006820F440400C4953
:1038F00008600846006840F480400860802108485D
:10390000FEF786FFFFF79CFF40210548FEF780FF8A
:10391000FFF796FF40210248FEF778FF10BD000038
:103920000004024070B5054600241848006820F4E1
:10393000404016490860084600680860FFF780FFAD
:10394000FFF77EFF002616E040211048FEF75EFFDD
:10395000FFF776FF40210D48FEF75AFF6006040E80
:1039600080210A48FEF749FF08B1601CC4B2FFF786
:1039700067FF701CC6B2082EE6DB15B9FFF7AEFF75
:1039800001E0FFF787FF204670BD00000004024001
:1039900010B51048006820F440400E490860084601
:1039A000006840F48040086080210A48FEF730FF3C
:1039B00040210848FEF72CFFFFF742FF8021054811
:1039C000FEF724FFFFF73CFF40210248FEF71EFFF1
:1039D00010BD00000004024010B51048006820F43B
:1039E00040400E4908600846006840F48040086086
:1039F00040210A48FEF70AFF80210848FEF706FF2B
:103A0000FFF71EFF40210548FEF702FF8021034813
:103A1000FEF7FEFEFFF714FF10BD00000004024099
:103A200070B504461948006820F440401749086002
:103A30000846006840F48040086040211348FEF7C3
:103A4000E5FE00251EE004F08006802E04D18021D2
:103A50000E48FEF7DDFE03E080210C48FEF7D6FE9F
:103A6000FFF7EEFE6006040E40210848FEF7D0FE88
:103A7000FFF7E6FE40210548FEF7C8FEFFF7E0FE2F
:103A8000681CC5B2082DDEDB70BD000000040240DA
:103A90004CF6CC40014908607047000000300040FF
:103AA00010B545F2555000F021F8032000F012F84F
:103AB0004FF4FA6000F014F800F004F8FFF7E8FFA4
:103AC00010BD00004AF6AA200149086070470000B6
:103AD000003000400149486070470000003000405D
:103AE00001498860704700000030004001490860CB
:103AF000704700000030004010B5012251033848E3
:103B000002F086FA01229103354802F081FA01227F
:103B1000D103334802F07CFA00220121314802F03F
:103B200077FA002202212F4802F072FA00224FF4A5
:103B300000612C4802F06CFA00224FF480512948B1
:103B400002F066FA00224FF40051264802F060FAB3
:103B500000224FF48041234802F05AFA0022042147
:103B6000204802F055FA002208211E4802F050FABF
:103B7000002210211B4802F04BFA00222021194894
:103B800002F046FA01222021154802F041FA0122F2
:103B90001021134802F03CFA01220821104802F0DB
:103BA00037FA012204210E4802F032FA01221146AE
:103BB0000D4802F02DFA01210B48FEF727FE0121E6
:103BC000042004F0D3FA0121032004F0CFFA0121EC
:103BD000022004F0CBFA0121084604F0C7FA10BD18
:103BE00000140240001002400000024010B5012104
:103BF000032002F051FF8020C10508804FF6FF70BE
:103C0000C8620020088501208882A72008818420BE
:103C1000104908802020091D08804FF6FF700D49CB
:103C20002C3108605320091F0880012009491431F4
:103C3000088080200749083108800648008840F045
:103C40000100044908800805008840F001000905CA
:103C5000088010BD0004004030B50B46002100BFB5
:103C600016E00A24B4EB107F05D9302404EB10745D
:103C700003F8114005E0412404EB10740A3C03F8FA
:103C80001140000100254C00641C1D554C1CE1B284
:103C90009142E6DB30BD00002DE9F0418AB00024FE
:103CA00000250026AE222146641C01A84254EA22C7
:103CB0002146641C425401222146641C4254AC2219
:103CC0002146641C4254234802782146641C01A802
:103CD00042540027042004F0A9F84FEA00180320FA
:103CE00004F0A4F848EAC008022004F09FF848EA6B
:103CF0008008012004F09AF848EA000808F0FF075D
:103D00002146641C01A84754601EC0B28DF806000D
:103D1000022504E001A8405D0644681CC5B2A54226
:103D2000F8DB2046611CCCB201A90E54EF222046DC
:103D3000611CCCB201A90A54FE222046611CCCB2FF
:103D400001A90A542246044805F006F90AB0BDE864
:103D5000F08100006100002000100140F0B585B046
:103D600004460D4646F24006002704F5C060009068
:103D700000208DF808008DF8090008208DF80A0051
:103D80002B208DF80B00F1B28DF80C1031128DF84C
:103D90000D108DF80E70E9B28DF80F1000218DF81E
:103DA00010108DF811108DF8121069460248FDF7B9
:103DB0000DFF05B0F0BD000000640040F0B585B017
:103DC00004460D464FF48E46012704F5C06000906E
:103DD00000208DF808008DF8090008208DF80A00F1
:103DE0002F208DF80B00F1B28DF80C1031128DF8E8
:103DF0000D108DF80E708DF80F5000218DF81010F9
:103E00008DF811108DF8121069460248FDF7DEFE9C
:103E100005B0F0BD006400402DE9F04385B00024FA
:103E2000002501274FF004084FF032092B4AD2E950
:103E300000109268CDE90302029129A103C9CDE9DE
:103E400000013C4644E000253EE000262DE04FF412
:103E500000412548FEF7DAFC0021042004F086F931
:103E60001DF8052002A830F81510204601F054F87E
:103E700041F2883001F004FA4FF400411A48FEF78D
:103E8000C7FC0121042004F071F941F2883001F0EF
:103E9000F7F941F2883001F0F3F941F2883001F08E
:103EA000EFF9214611A008F0A7FB19480078002877
:103EB000CDD04E4504DB214616A008F09DFB01E065
:103EC00000F0A0FB681CC5B2062DBEDB601CC4B2AE
:103ED0004445B8DD012005B0BDE8F083F0140108C9
:103EE0003A3B3C3DF1F30000001402404D6F747208
:103EF0006F204150534C3244423A20256420726571
:103F00006164206D6F746F72204944200A000000C4
:103F1000430000204D6F74726F204150534C324467
:103F2000423A2025642072656164206D6F746F725F
:103F3000204944206661696C64202121210A000027
:103F40002DE9F0470024012504264FF03209A04650
:103F500005272C4608E006212046FFF7FFFE4846CD
:103F600001F08EF9601CC4B2B442F4DD2C4608E0C6
:103F70000F212046FFF7F2FE484601F081F9601C50
:103F8000C4B2B442F4DD6CA008F036FBFFF744FF86
:103F900070A008F031FB701EC4B22DE00321204652
:103FA00001F03CF8484601F06BF94FF0000810E0D2
:103FB0000020724908707248016804F5B0608142BF
:103FC00003D100206E49086003E021466DA008F08F
:103FD00013FB6A48007828B94046411C1FFA81F853
:103FE000B842E5DBB84505D1601EC4B2214673A0D6
:103FF00008F002FB601EC4B2681EA042CEDB7DA0AA
:1040000008F0FAFA2C4608E086212046FFF7A6FEC3
:10401000484601F035F9601CC4B2B442F4DD7EA01C
:1040200008F0EAFA2C4629E00F212046FFF796FE19
:10403000484601F025F94FF000080DE000204F49F7
:1040400008704F48016804F5B060814204D14C48C3
:10405000C07A602800D108E04848007828B9404676
:10406000411C1FFA81F8B842E8DB00BFB84503DB0A
:10407000214672A008F0C0FA601CC4B2B442D3DD7D
:104080003246294676A008F0B7FA2C4609E09FEDA3
:10409000820B204600F0F2FF484601F0F1F8601C68
:1040A000C4B2B442F3DD324629467DA008F0A4FA3A
:1040B0002C4608E01C21204600F05AFF484601F03B
:1040C000DFF8601CC4B2B442F4DD324629468348AE
:1040D00008F092FA2C4615E00421204601F024F85D
:1040E000484601F0CDF8484601F0CAF809212046BB
:1040F00001F070F8484601F0C3F8484601F0C0F8F6
:10410000601CC4B2B442E7DD75A008F075FA2C4615
:104110000EE001212046FFF751FE484601F0B0F8BD
:10412000484601F0ADF8484601F0AAF8601CC4B258
:10413000B442EEDDBDE8F0874D4F544F525F415021
:10414000534C3244425F496E666F725F4765742E0E
:104150002E2E0A004D4F544F525F4150534C324463
:10416000423A20737465703120636865636B206325
:10417000616E20627573200A000000004300002079
:10418000080600204D6F74726F204150534C32442A
:10419000423A202564206973206F66666C696E65FB
:1041A0002C20636865636B2043414E206275732049
:1041B000636F6E6E656374696F6E0A004D6F747223
:1041C0006F204150534C3244423A202564206E6F98
:1041D0007420726573706F6E64696E672C206D6FEA
:1041E000746F7220696E6974206661696C65640A17
:1041F000000000004D4F544F525F4150534C324429
:10420000423A207374657032206472697665206565
:1042100072726F7273200A004D4F544F525F4150BB
:10422000534C3244423A20737465703320656E619A
:10423000626C65206D6F746F72730A004D6F7472DB
:104240006F204150534C3244423A20256420656E21
:1042500061626C65206661696C65640A000000003B
:104260004D6F74726F204150534C3244423A207368
:104270007465703420536574204D6F746F722049DB
:10428000532025642D256420546172676574207362
:104290007065656420300A00000000000000000026
:1042A0004D6F74726F204150534C3244423A207328
:1042B0007465703520536574204D6F746F7220499A
:1042C000532025642D25642043757272656E742019
:1042D0004C696D742032350A00000000F02201089C
:1042E0004D4F544F525F4150534C3244423A207329
:1042F0007465703720656E61626C652050444F0AAA
:1043000000000000BB480088C0F30B1018285CD1E7
:104310000020B9490860B748C07A0870B548007BEA
:104320004870B448407B8870B248807BC870B14800
:104330000068A0F2811002280DD2084600684142B0
:10434000AC480068A0F28110C0EB0010AB4A02EB51
:10435000800081600BE0A8480168A6480068A0F2D0
:104360008110C0EB0010A54A02EB800081600020A4
:10437000A14908609F48C07B08709E48007C487037
:104380009C48407C88709B48807CC8709948006835
:10439000A0F2811002280CD20846006841429548DC
:1043A0000068A0F28110C0EB0010944A42F820107F
:1043B0001FE1914801688F480068A0F28110C0EBAE
:1043C00000108E4A42F8201013E18A480088C0F39A
:1043D0000B105828ECD18748407B602821D18548B4
:1043E000007B63281DD18348807BD0B9002082499F
:1043F00008608048C07B08707E48007C48707D481B
:10440000407C88707B48807CC87008460168794889
:104410000068A0F28150C0EB0010784A42F82010EA
:10442000E7E07448407B60281ED17248007BF92881
:104430001AD17048807B182816D100207049088056
:104440006C48C07B08706B48007C48700846B0F927
:10445000001068480068A0F28150C0EB0010674A65
:1044600002EB80008160C4E06248407B602823D179
:104470006048007BF9281FD15E48807B19281BD13A
:1044800000205D4908605B48C07B08705948007C8B
:1044900048705848407C88705648807CC8700846F0
:1044A000016854480068A0F28150C0EB0010534AE4
:1044B00002EB800081609CE04E48407B60281DD16B
:1044C0004C48007B782819D14A48807BB0B900203D
:1044D0004B4908804748C07B08704648007C4870BC
:1044E0000846B0F9001043480068A0F28150C0EBC4
:1044F0000010424A02EB800041617AE03D48407B77
:1045000060281DD13B48007BF72819D13948807BB2
:10451000122815D100203A4908803648C07B08701F
:104520003448007C48700846018832480068A0F290
:104530008150C0EB0010314A02EB8000018358E04B
:104540002C48407B60281DD12A48007BF72819D1D0
:104550002848807B0B2815D1002029490880254850
:10456000C07B08702348007C4870084601882148B9
:104570000068A0F28150C0EB0010204A02EB8000DE
:10458000418336E01B48407B602812D11948007BEC
:1045900041280ED11748807B58B91648C17B006866
:1045A000A0F28150C0EB0010144A02EB80000173AE
:1045B0001FE01048407B26281BD10E48007B0128B5
:1045C00017D10C48807BA0B90A48C17B0068A0F2D3
:1045D0008150C0EB0010094A02EB8000417305488E
:1045E000017C0068A0F28150C0EB001002EB80005B
:1045F0008173704708060020AC000020C40700202B
:10460000B000002038B5F1480088C0F30B1018281E
:1046100019D1EE480068A0F28110C0EB0010EC4CFC
:1046200054F82030E9480068A0F28110C0EB001077
:1046300004EB80008268E5480068A0F28111E5A0E3
:1046400007F0DAFFD4E3E1480088C0F30B105828E4
:10465000F8D1DE48407B602817D1DC48007B632816
:1046600013D1DA48807B80B9D8480068A0F2815025
:10467000C0EB0010D64B53F82020D4480068A0F2BD
:104680008151E1A007F0B8FFB2E3D048407B602839
:1046900012D1CE48007BF9280ED1CC48807B182857
:1046A0000AD1E248B0F90020C8480068A0F2815160
:1046B000DFA007F0A1FF9BE3C448407B602819D12D
:1046C000C248007BF92815D1C048807B192811D138
:1046D000BE480068A0F28150C0EB0010BC4B03EB59
:1046E00080008268B9480068A0F28151DAA007F022
:1046F00083FF7DE3B548407B602818D1B348007B39
:10470000782814D1B148807B88B9B0480068A0F2FD
:104710008150C0EB0010AE4B03EB80004269AB4808
:104720000068A0F28151D8A007F066FF60E3A748B7
:10473000407B60281AD1A548007BF72816D1A348F2
:10474000807B122812D1A1480068A0F28150C0EBF2
:1047500000109F4B03EB8000B0F918209B480068C5
:10476000A0F28151D3A007F047FF41E39748407B77
:1047700060281AD19548007BF72816D19348807B92
:104780000B2812D191480068A0F28150C0EB0010B4
:104790008F4B03EB8000B0F91A208C480068A0F220
:1047A0008151CDA007F028FF22E38848407B602894
:1047B0003CD18648007B412838D18448807B80BB2F
:1047C00082480068A0F28150C0EB0010804901EBE4
:1047D0008000007B08280DD17C480068A0F2815041
:1047E000C0EB00100A4602EB8000017BC3A007F07B
:1047F00003FFFDE275480068A0F28150C0EB001095
:10480000734901EB8000007B00288FD16F4800685E
:10481000A0F28150C0EB00100A4602EB8000017B41
:1048200000E003E0C0A007F0E7FEE1E26748407B5C
:1048300026287DD16548007B0128FAD16348807B1A
:104840000028F6D1C3A007F0D7FE60480068A0F2A8
:104850008150C0EB00105E4901EB8000407B00F00E
:10486000010010B1C4A007F0C7FE58480068A0F2CC
:104870008150C0EB0010564901EB8000407B00F0F6
:10488000020010B1BFA007F0B7FE50480068A0F2C8
:104890008150C0EB00104E4901EB8000407B00F0DE
:1048A000040010B1BDA007F0A7FE48480068A0F2C0
:1048B0008150C0EB0010464901EB8000407B00F0C6
:1048C000080010B1BBA007F097FE40480068A0F2B6
:1048D0008150C0EB00103E4901EB8000407B00F0AE
:1048E000100010B1B7A007F087FE38480068A0F2AA
:1048F0008150C0EB0010364901EB8000407B00F096
:10490000200010B1B4A007F077FE30480068A0F294
:104910008150C0EB00102E4901EB8000407B00F07D
:10492000400010B1B1A007F067FE2848006800E021
:10493000D3E1A0F28150C0EB0010254901EB8000CB
:10494000407B00F0800010B1ADA007F055FE1F487D
:104950000068A0F28150C0EB00101D4901EB8000FF
:10496000807B00F0010010B1A9A007F045FE1748B8
:104970000068A0F28150C0EB0010154901EB8000E7
:10498000807B00F0020010B1A8A007F035FE0F48B0
:104990000068A0F28150C0EB00100D4901EB8000CF
:1049A000807B00F0040010B1A6A007F025FE0748A8
:1049B0000068A0F28150C0EB0010054901EB8000B7
:1049C000807B00F0080000B142E144E108060020CD
:1049D000C40700204D6F746F72204150534C324415
:1049E000422069643A2564202050444F207370654A
:1049F00065645F72706D3A25642020616E676C6536
:104A00003A25640A000000004D6F746F7220415017
:104A1000534C3244422069643A2564202020616E60
:104A2000676C653A256420200A000000B000002071
:104A30004D6F746F72204150534C32444220696470
:104A40003A256420202073706565645F72706D3A4A
:104A5000256420200A0000004D6F746F72204150C1
:104A6000534C3244422069643A25642020207370FC
:104A70006565645F72706D28302E303031293A25BB
:104A80006420200A000000004D6F746F72204150B6
:104A9000534C3244422069643A25642020207265D8
:104AA000616C5F63757272656E743A256420200ACA
:104AB000000000004D6F746F72204150534C32441F
:104AC000422069643A2564202020566F6C74616727
:104AD000653A256420200A004D6F746F72204150A2
:104AE000534C3244422069643A25642020205465A6
:104AF0006D703A256420200A000000004D6F746F2D
:104B000072204150534C324442206472697665727F
:104B1000202069643A256420206572726F7220211A
:104B20002121200A000000004D6F746F7220415057
:104B3000534C324442206472697665722020696465
:104B40003A256420206973204F4B20212121200A1F
:104B5000000000004D6F746F72204150534C32447E
:104B60004220647269766572206572726F7220638A
:104B70006F64653A20090000C4DAB2BFB4EDCEF329
:104B8000200A0000B1E0C2EBC6F72041425A20D013
:104B9000C5BAC5B4EDCEF30A00000000B1E0C2EB27
:104BA000C6F72055565720D0C5BAC5B4EDCEF30A86
:104BB00000000000B1E0C2EBC6F7BCC6CAFDB4ED10
:104BC000CEF30A00C7FDB6AFC6F7CEC2B6C8B9FD70
:104BD000B8DF200A00000000C7FDB6AFC6F7C4B8B2
:104BE000CFDFB5E7D1B9B9FDB8DF0A00C7FDB6AF71
:104BF000C6F7C4B8CFDFB5E7D1B9B9FDB5CD0A0066
:104C0000C7FDB6AFC6F7CAE4B3F6B6CCC2B70A0062
:104C1000C7FDB6AFC6F7D6C6B6AFB5E7D7E8B9FD9C
:104C2000CEC2B1A8BEAF200A00000000CAB5BCCAFF
:104C3000B8FACBE6CEF3B2EEB3ACB9FDD4CAD0ED40
:104C4000D6B50A00B1A3C1F4B1B8D3C30A000000BD
:104C500068A007F0D1FC6F480068A0F28150C0EB5B
:104C600000106D4901EB8000807B00F0100010B156
:104C70006AA007F0C1FC67480068A0F28150C0EB51
:104C80000010654901EB8000807B00F0200010B12E
:104C900069A007F0B1FC5F480068A0F28150C0EB4A
:104CA00000105D4901EB8000807B00F0400010B1F6
:104CB00065A007F0A1FC57480068A0F28150C0EB46
:104CC0000010554901EB8000807B00F08000002837
:104CD00002D064A007F090FC8AE04E48407B302868
:104CE00011D14C48007B70B94A48807B3A280AD1E0
:104CF0004848C07B00904748037C427C817C5DA093
:104D000007F07AFC74E04348407B302811D14148D9
:104D1000007B70B93F48807B3B280AD13D48C07B6F
:104D200000903C48037C427C817C59A007F064FCE5
:104D30005EE03848407B302811D13648007B70B99E
:104D40003448807B3C280AD13248C07B00903148EF
:104D5000037C427C817C57A007F04EFC48E02D4844
:104D6000407B302811D12B48007B70B92948807BCB
:104D70003D280AD12748C07B00902648037C427C0E
:104D8000817C55A007F038FC32E02248407B252882
:104D900019D12048007BB0B91E48807BF12812D180
:104DA0001C48807C02061B48407C42EA00421948AD
:104DB000007C42EA0020174AD27B40EA02014CA064
:104DC00007F01AFC14E01348407B252810D1114845
:104DD000007B68B90F48807BF32809D10D48C07B60
:104DE00000900C48037C427C817C45A007F004FCC9
:104DF00038BD000049322A5420B9CAD5CF28C7FD92
:104E0000B6AFC6F7BBF2B5E7BBFAB9FDD4D8290AED
:104E10000000000008060020C4070020CBD9B6C857
:104E2000B8FACBE6CEF3B2EEB3ACB9FDD4CAD0ED4E
:104E3000D6B5200A00000000B5E7BBFAB9FDCEC226
:104E4000B1A8BEAF0A000000D1B0D5D2B5E7BBFA19
:104E5000B4EDCEF328CDA8D1B6CABDB1E0C2EBC641
:104E6000F7290A00CDA8D0C5B5F4CFDFB1A8BEAFF1
:104E70000A000000B1BEBBFAD0CDBAC52DCFB5C176
:104E8000D03A256325632563256320200A000000AE
:104E9000B1BEBBFAD0CDBAC52DB5E7D1B9D3EBB50C
:104EA000E7C1F7B5C8BCB63A25632563256325631A
:104EB00020200A00B1BEBBFAD0CDBAC52DB7B4C010
:104EC000A1D3EBD7DCCFDFC0E0D0CD3A256325639B
:104ED0002563256320200A00B1BEBBFAD0CDBAC538
:104EE0003A256325632563256320200A000000001E
:104EF000B9CCBCFEC8D5C6DA3A256420200A000029
:104F0000D3B2BCFEB0E6B1BE3A2563256325632566
:104F10006320200A00000000F0B585B005460C466D
:104F20001646402705F5C060009000208DF8080067
:104F30008DF8090008208DF80A008DF80B70E1B299
:104F40008DF80C1021128DF80D108DF80E600021D7
:104F50008DF80F108DF810108DF811108DF81210BB
:104F600069460248FCF732FE05B0F0BD006400401F
:104F70002DE9F0412DED068B86B004460D4646F234
:104F800073064FF000082846FBF72BFB41EC1A0B89
:104F90009FED1D0B53EC102BFBF731FA41EC190B75
:104FA0009FED1B0B53EC102BFBF79BFA41EC180BFE
:104FB000FBF743FB87B204F5C060019000208DF839
:104FC0000C008DF80D0008208DF80E002B208DF8B8
:104FD0000F008DF8106031128DF811108DF81280CD
:104FE0008DF8137039128DF8141000218DF81510FA
:104FF0008DF8161001A90848FCF7E8FD06B0BDECD5
:10500000068BBDE8F0810000000000000020584041
:10501000000000000000F03F00640040F0B585B0E3
:1050200004460D4646F26006002704F5C060009075
:1050300000208DF808008DF8090008208DF80A007E
:105040002F208DF80B00F1B28DF80C1031128DF875
:105050000D108DF80E70E9B28DF80F1000218DF84B
:1050600010108DF811108DF8121069460248FCF7E7
:10507000ADFD05B0F0BD000000640040F0B52DEDC1
:10508000068B85B00546B0EE408AF0EE608A46F2A7
:10509000FF0600279FED1F0B53EC102B51EC180B54
:1050A000FBF7ADF941EC1A0B9FED1C0B53EC102BE9
:1050B000FBF717FA41EC190BFBF7A0FA044605F5CC
:1050C000C060009000208DF808008DF809000820CD
:1050D0008DF80A0023208DF80B00F1B28DF80C102A
:1050E00031128DF80D108DF80E70E1B28DF80F10A1
:1050F000210A8DF81010210C8DF81110210E8DF859
:10510000121069460748FCF761FD05B0BDEC068B3F
:10511000F0BD0000C7BEBF9CEC79914000000000CC
:105120000000F03F006400402DE9F0412DED068BBA
:1051300086B005460E4646F283074FF0000830461B
:10514000FBF74FFA41EC1A0B9FED1D0B53EC102BA4
:10515000FBF755F941EC190B9FED1B0B53EC102B92
:10516000FBF7BFF941EC180BFBF767FA044605F5AE
:10517000C060019000208DF80C008DF80D00082013
:105180008DF80E0023208DF80F008DF81070391265
:105190008DF811108DF812808DF81340210A8DF8CA
:1051A0001410210C8DF81510210E8DF8161001A980
:1051B0000748FCF70BFD06B0BDEC068BBDE8F0819F
:1051C0006666666666C65040000000000000F03F5C
:1051D000006400402DE9F0412DED068B86B00546B8
:1051E0000E4646F284074FF000083046FBF7F9F907
:1051F00041EC1A0B9FED1D0B53EC102BFBF7FFF846
:1052000041EC190B9FED1B0B53EC102BFBF769F9CD
:1052100041EC180BFBF711FA044605F5C06001904C
:1052200000208DF80C008DF80D0008208DF80E0080
:1052300023208DF80F008DF8107039128DF81110A1
:105240008DF812808DF81340210A8DF81410210C6E
:105250008DF81510210E8DF8161001A90748FCF7DE
:10526000B5FC06B0BDEC068BBDE8F08166666666EF
:1052700066C65040000000000000F03F006400409F
:1052800006E041F2883100BF0A1EA1F10101FBD105
:10529000021EA0F10100F4D1704700001CB50446C5
:1052A00004A103C9CDE90001E1B2684600F006F8A7
:1052B0001CBD0000403F60000000000070B586B0DB
:1052C00005460E46002406F5C060019000208DF8CA
:1052D0000C008DF80D0008208DF80E0000BF05E0D1
:1052E000295D0DF10F000155601CC4B2082CF7DBDD
:1052F00001A90248FCF76AFC06B070BD00640040DA
:1053000010B52DED0E8B8EB0B7EE000AF0EE409A80
:105310009FEDE30AB0EE408A9FEDE10AF0EE408A8D
:105320009FEDDF0AB0EE409A9FEDDD0AB0EE40EA55
:10533000002407A808A90DAB03AACDE9001009A90C
:105340000BA808F091FF20B101200EB0BDEC0E8B30
:1053500010BDBDF82C00D349C880BDF82E10D1482F
:105360000181BDF830104181B0F9060000EE100A4D
:10537000B8EEC00ADFEDCC0A20EE200A10EE101ABB
:105380000846FBF773F941EC1C0B9FEDC80B53EC7F
:10539000102BFBF734F841EC1B0B9FEDC60B53ECC5
:1053A000102BFBF79EF841EC1A0BFBF7A3F900EE6C
:1053B000100ABC4880ED060AB0F9080000EE100A99
:1053C000B8EEC00ADFEDB80A20EE200A10EE101A7F
:1053D0000846FBF74BF941EC1C0B9FEDB40B53EC6B
:1053E000102BFBF70CF841EC1B0B9FEDB20B53ECB1
:1053F000102BFBF776F841EC1A0BFBF77BF900EE6C
:10540000100AA84880ED070AB0F90A0000EE100A59
:10541000B8EEC00ADFEDA40A20EE200A10EE101A42
:105420000846FBF723F941EC1C0B9FEDA00B53EC56
:10543000102BFAF7E4FF41EC1B0B9FED9E0B53EC96
:10544000102BFBF74EF841EC1A0BFBF753F900EE6B
:10545000100A944880ED080A98480088052802DB65
:105460000020964908808F4890ED080A93480188EB
:105470000088401C914A1080914800EB810080ED2B
:10548000000A9FED870AB0EE40EA00240AE08C484B
:1054900000EB840090ED000A30EE0E0AB0EE40EA18
:1054A000601CC4B2854800888442F0DBB1EE040A77
:1054B000CEEE000A7B48C0ED080ABDF82400794909
:1054C0000880BDF826004880BDF828008880BDF817
:1054D000200000F4807000287ED09DED030AB8EE15
:1054E000C00ADFED780A80EE201AF0EE419A9DEDB9
:1054F000040AB8EEC00ADFED730A80EE201AB0EE9F
:10550000418A9DED050AB8EEC00ADFED6E0A80EE15
:10551000201AF0EE418A9DED060AB8EEC00ADFEDD2
:10552000690A80EE201AB0EE419AB8EE000A28EE21
:10553000000A20EE090AF0EE000A69EEA00A00EE69
:10554000A80A10EE101A0846FBF790F841EC1C0B65
:10555000B0EE4C0AF0EE6C0A07F0C2FAB0EE40BAB8
:10556000F0EE60BA9FED580B53EC102B51EC1B0B77
:10557000FAF745FF41EC1A0BFBF7BCF800EE100AF6
:10558000484880ED0E0AB8EE000A28EE000A20EE28
:10559000080AF0EE000A68EEA00A00EEE80AF7EE4C
:1055A000000A30EE200A10EE101A0846FBF75EF8EB
:1055B00041EC1B0BB0EE000A28EE800A20EE090A2F
:1055C000F0EE000A69EEA00A00EE880A10EE101A4A
:1055D0000846FBF74BF800E05EE041EC1C0BB0EE38
:1055E0004B1AF0EE6B1AB0EE4C0AF0EE6C0A07F0B4
:1055F00093FDB0EE40AAF0EE60AA9FED330B53ECA2
:10560000102B51EC1A0BFAF7FAFE41EC1D0BFBF7CD
:1056100071F800EE100A234880ED0D0A29EEA90A60
:1056200008EE080A08EEE80A09EE490A10EE101A18
:105630000846FBF71BF841EC1C0B28EE280A09EE84
:10564000890AF0EE000A20EE200A10EE101A084631
:10565000FBF70CF841EC1D0BB0EE4C1AF0EE6C1A97
:10566000B0EE4D0AF0EE6D0A07F056FDB0EE40BA0E
:10567000F0EE60BA9FED140B53EC102B51EC1B0BAA
:10568000FAF7BDFE41EC1A0BFBF734F800EE100AF6
:10569000044880ED0F0A01E0022056E6002054E69F
:1056A00000000000B408002039FA8E3C0000000021
:1056B00000000040000000E04D623040B6000020D5
:1056C000800900200000804E6666666666A64C4033
:1056D00010B500241448006820F4404012490860C6
:1056E00008460068086080210F48FDF791F8FEF732
:1056F000A7F840210C48FDF78BF8FEF7A1F807E06A
:10570000601CC4B2FA2C03DDFEF766F9012010BD5F
:1057100080210548FDF771F80028F1D140210248A9
:10572000FDF774F80020F2E7000402402DE9F04193
:1057300006460F4614461D46FEF72AF9002141EAA7
:105740004601C8B2FEF76CF9FFF7C2FF20B1FEF7C1
:1057500043F90120BDE8F0813846FEF761F9FFF713
:10576000B7FFFEF715F9012101EB4601C8B2FEF7BC
:1057700057F9FFF7ADFF0DE0012C04D10020FEF733
:10578000D1F8287003E00120FEF7CCF82870601EE5
:10579000C4B26D1C002CEFD1FEF71EF90020D9E732
:1057A0002DE9F04105460E4617469846FEF7F0F8FB
:1057B000002141EA4501C8B2FEF732F9FFF788FF40
:1057C00020B1FEF709F90120BDE8F0813046FEF76F
:1057D00027F9FFF77DFF00240CE018F80400FEF71E
:1057E0001FF9FFF775FF18B1FEF7F6F80120EBE798
:1057F000601CC4B2BC42F0DBFEF7EEF80020E3E729
:1058000030B59BB005460C468B48854278D10121C6
:10581000801501F061F90121880501F02DF984B9A5
:105820000121084601F028F90120139003208DF88A
:10583000500000208DF8530013A98048FCF772FF38
:1058400093E0012C10D10121084601F015F9022046
:10585000139003208DF8500000208DF8530013A9F9
:105860007648FCF75FFF80E0022C10D1012108464A
:1058700001F002F90420139003208DF8500000205D
:105880008DF8530013A96D48FCF74CFF6DE0032C15
:1058900010D10121084601F0EFF8082013900320F1
:1058A0008DF8500000208DF8530013A96348FCF7D1
:1058B00039FF5AE0042C10D10121084601F0DCF830
:1058C0001020139003208DF8500000208DF8530015
:1058D00013A95A48FCF726FF47E0052C11D10121F6
:1058E000084601F0C9F82020139003208DF85000DD
:1058F00000208DF8530013A95048FCF713FF34E043
:1059000096E0062C10D10121084601F0B5F84020A0
:10591000139003208DF8500000208DF8530013A938
:105920004648FCF7FFFE20E0072C10D10121084675
:1059300001F0A2F88020139003208DF85000002081
:105940008DF8530013A93D48FCF7ECFE0DE0102C38
:1059500003D10120FBF762F907E0112C03D10120EC
:10596000FBF75CF901E000BFFEE70121080201F04E
:10597000C3F800214FF4807001F0BEF800200090C1
:105980004FF480300190002002904FF4706003903B
:105990006846FBF789F8002015908DF85800012023
:1059A0008DF85900002017901890199001208DF85B
:1059B000680015A92048FBF7A5F81F484C30059052
:1059C0001F480690002007900120089000200990B1
:1059D0000A904FF400600B9080000C9040110D90E5
:1059E00040020E9000200F90012010900020119096
:1059F0001290049004A91348FCF70AFE01211148F3
:105A0000FCF7F4FC01212846FBF771F80121284638
:105A1000FBF762F80423012221462846FBF79CF895
:105A200001212846FBF735F82846FBF7F1F801E09D
:105A300000BFFEE71BB030BD002001400000024067
:105A4000E80000201064024006E041F2883100BF07
:105A50000A1EA1F10101FBD1021EA0F10100F4D147
:105A6000704700BFFEE7000070B52DED088B42F2D5
:105A700010750A244FF4B476FC480078012803D04E
:105A80000020BDEC088B70BDF9480078AE2803D12A
:105A9000F7484078EA2801D00020F2E70020F349D7
:105AA0000870F348C078F349087008460078F22877
:105AB00072D1F14890F8200001286DD1EC4841796D
:105AC000007901EB002000EE100AB8EEC00A9FED4D
:105AD000EB1AC0EE010A00EE104AB8EE400A30EEB2
